{
  "_format": "hh-sol-artifact-1",
  "contractName": "SalaryAutomation",
  "sourceName": "contracts/SalaryAutomation.sol",
  "abi": [
    {
      "inputs": [
        {
          "internalType": "address",
          "name": "_keeperRegistryAddress",
          "type": "address"
        },
        {
          "internalType": "uint256",
          "name": "_salaryUsd",
          "type": "uint256"
        },
        {
          "internalType": "address",
          "name": "_employee",
          "type": "address"
        }
      ],
      "stateMutability": "nonpayable",
      "type": "constructor"
    },
    {
      "anonymous": false,
      "inputs": [
        {
          "indexed": false,
          "internalType": "uint256",
          "name": "date",
          "type": "uint256"
        }
      ],
      "name": "EmployeePaid",
      "type": "event"
    },
    {
      "anonymous": false,
      "inputs": [
        {
          "indexed": false,
          "internalType": "address",
          "name": "account",
          "type": "address"
        }
      ],
      "name": "Paused",
      "type": "event"
    },
    {
      "anonymous": false,
      "inputs": [
        {
          "indexed": false,
          "internalType": "address",
          "name": "account",
          "type": "address"
        }
      ],
      "name": "Unpaused",
      "type": "event"
    },
    {
      "inputs": [
        {
          "internalType": "bytes",
          "name": "",
          "type": "bytes"
        }
      ],
      "name": "checkUpkeep",
      "outputs": [
        {
          "internalType": "bool",
          "name": "upkeepNeeded",
          "type": "bool"
        },
        {
          "internalType": "bytes",
          "name": "",
          "type": "bytes"
        }
      ],
      "stateMutability": "view",
      "type": "function"
    },
    {
      "inputs": [],
      "name": "fund",
      "outputs": [],
      "stateMutability": "payable",
      "type": "function"
    },
    {
      "inputs": [],
      "name": "getEmployee",
      "outputs": [
        {
          "internalType": "address",
          "name": "",
          "type": "address"
        }
      ],
      "stateMutability": "view",
      "type": "function"
    },
    {
      "inputs": [],
      "name": "getEmployeeSalary",
      "outputs": [
        {
          "internalType": "uint256",
          "name": "",
          "type": "uint256"
        }
      ],
      "stateMutability": "view",
      "type": "function"
    },
    {
      "inputs": [],
      "name": "getEthPrice",
      "outputs": [
        {
          "internalType": "uint256",
          "name": "",
          "type": "uint256"
        }
      ],
      "stateMutability": "view",
      "type": "function"
    },
    {
      "inputs": [],
      "name": "getKeeperRegistryAddress",
      "outputs": [
        {
          "internalType": "address",
          "name": "",
          "type": "address"
        }
      ],
      "stateMutability": "view",
      "type": "function"
    },
    {
      "inputs": [],
      "name": "lastTimeStamp",
      "outputs": [
        {
          "internalType": "uint256",
          "name": "",
          "type": "uint256"
        }
      ],
      "stateMutability": "view",
      "type": "function"
    },
    {
      "inputs": [],
      "name": "owner",
      "outputs": [
        {
          "internalType": "address",
          "name": "",
          "type": "address"
        }
      ],
      "stateMutability": "view",
      "type": "function"
    },
    {
      "inputs": [],
      "name": "pause",
      "outputs": [],
      "stateMutability": "nonpayable",
      "type": "function"
    },
    {
      "inputs": [],
      "name": "paused",
      "outputs": [
        {
          "internalType": "bool",
          "name": "",
          "type": "bool"
        }
      ],
      "stateMutability": "view",
      "type": "function"
    },
    {
      "inputs": [
        {
          "internalType": "bytes",
          "name": "",
          "type": "bytes"
        }
      ],
      "name": "performUpkeep",
      "outputs": [],
      "stateMutability": "nonpayable",
      "type": "function"
    },
    {
      "inputs": [
        {
          "internalType": "address",
          "name": "_employee",
          "type": "address"
        }
      ],
      "name": "setEmployee",
      "outputs": [],
      "stateMutability": "nonpayable",
      "type": "function"
    },
    {
      "inputs": [
        {
          "internalType": "uint256",
          "name": "_salaryUsd",
          "type": "uint256"
        }
      ],
      "name": "setEmployeeSalary",
      "outputs": [],
      "stateMutability": "nonpayable",
      "type": "function"
    },
    {
      "inputs": [
        {
          "internalType": "address",
          "name": "_keeperRegistryAddress",
          "type": "address"
        }
      ],
      "name": "setKeeperRegistryAddress",
      "outputs": [],
      "stateMutability": "nonpayable",
      "type": "function"
    },
    {
      "inputs": [],
      "name": "unpause",
      "outputs": [],
      "stateMutability": "nonpayable",
      "type": "function"
    },
    {
      "inputs": [
        {
          "internalType": "uint256",
          "name": "amount",
          "type": "uint256"
        },
        {
          "internalType": "address payable",
          "name": "payee",
          "type": "address"
        }
      ],
      "name": "withdraw",
      "outputs": [],
      "stateMutability": "nonpayable",
      "type": "function"
    },
    {
      "stateMutability": "payable",
      "type": "receive"
    }
  ],
  "bytecode": "0x60806040523480156200001157600080fd5b506040516200225738038062002257833981810160405281019062000037919062000546565b60008060006101000a81548160ff02191690831515021790555033600060016101000a81548173ffffffffffffffffffffffffffffffffffffffff021916908373ffffffffffffffffffffffffffffffffffffffff160217905550735f4ec3df9cbd43714fe2740f5e3616155c5b8419600560006101000a81548173ffffffffffffffffffffffffffffffffffffffff021916908373ffffffffffffffffffffffffffffffffffffffff160217905550620000f8836200012a60201b60201c565b62000109826200027460201b60201c565b6200011a816200035760201b60201c565b4260038190555050505062000709565b600060019054906101000a900473ffffffffffffffffffffffffffffffffffffffff1673ffffffffffffffffffffffffffffffffffffffff163373ffffffffffffffffffffffffffffffffffffffff1614620001bd576040517f08c379a0000000000000000000000000000000000000000000000000000000008152600401620001b49062000603565b60405180910390fd5b600073ffffffffffffffffffffffffffffffffffffffff168173ffffffffffffffffffffffffffffffffffffffff16141562000230576040517f08c379a0000000000000000000000000000000000000000000000000000000008152600401620002279062000675565b60405180910390fd5b80600160006101000a81548173ffffffffffffffffffffffffffffffffffffffff021916908373ffffffffffffffffffffffffffffffffffffffff16021790555050565b600060019054906101000a900473ffffffffffffffffffffffffffffffffffffffff1673ffffffffffffffffffffffffffffffffffffffff163373ffffffffffffffffffffffffffffffffffffffff161462000307576040517f08c379a0000000000000000000000000000000000000000000000000000000008152600401620002fe9062000603565b60405180910390fd5b600081116200034d576040517f08c379a00000000000000000000000000000000000000000000000000000000081526004016200034490620006e7565b60405180910390fd5b8060048190555050565b600060019054906101000a900473ffffffffffffffffffffffffffffffffffffffff1673ffffffffffffffffffffffffffffffffffffffff163373ffffffffffffffffffffffffffffffffffffffff1614620003ea576040517f08c379a0000000000000000000000000000000000000000000000000000000008152600401620003e19062000603565b60405180910390fd5b600073ffffffffffffffffffffffffffffffffffffffff168173ffffffffffffffffffffffffffffffffffffffff1614156200045d576040517f08c379a0000000000000000000000000000000000000000000000000000000008152600401620004549062000675565b60405180910390fd5b80600260006101000a81548173ffffffffffffffffffffffffffffffffffffffff021916908373ffffffffffffffffffffffffffffffffffffffff16021790555050565b600080fd5b600073ffffffffffffffffffffffffffffffffffffffff82169050919050565b6000620004d382620004a6565b9050919050565b620004e581620004c6565b8114620004f157600080fd5b50565b6000815190506200050581620004da565b92915050565b6000819050919050565b62000520816200050b565b81146200052c57600080fd5b50565b600081519050620005408162000515565b92915050565b600080600060608486031215620005625762000561620004a1565b5b60006200057286828701620004f4565b935050602062000585868287016200052f565b92505060406200059886828701620004f4565b9150509250925092565b600082825260208201905092915050565b7f4e6f74206f776e65720000000000000000000000000000000000000000000000600082015250565b6000620005eb600983620005a2565b9150620005f882620005b3565b602082019050919050565b600060208201905081810360008301526200061e81620005dc565b9050919050565b7f496e76616c696420616464726573730000000000000000000000000000000000600082015250565b60006200065d600f83620005a2565b91506200066a8262000625565b602082019050919050565b6000602082019050818103600083015262000690816200064e565b9050919050565b7f53616c617279203c3d2030000000000000000000000000000000000000000000600082015250565b6000620006cf600b83620005a2565b9150620006dc8262000697565b602082019050919050565b600060208201905081810360008301526200070281620006c0565b9050919050565b611b3e80620007196000396000f3fe6080604052600436106100f65760003560e01c806367c9b0171161008a5780638456cb59116100595780638456cb59146102fd5780638da5cb5b14610314578063945551141461033f578063b60d428814610368576100fd565b806367c9b0171461023e5780636e04ff0d14610269578063719b3f88146102a7578063810623e3146102d2576100fd565b80633f4ba83a116100c65780633f4ba83a146101a85780634132db8f146101bf5780634585e33b146101ea5780635c975abb14610213576100fd565b8062f714ce146101025780630d51863a1461012b5780631b320776146101545780633f3b3b271461017d576100fd565b366100fd57005b600080fd5b34801561010e57600080fd5b5061012960048036038101906101249190611177565b610372565b005b34801561013757600080fd5b50610152600480360381019061014d91906111b7565b610523565b005b34801561016057600080fd5b5061017b60048036038101906101769190611222565b610600565b005b34801561018957600080fd5b50610192610744565b60405161019f919061125e565b60405180910390f35b3480156101b457600080fd5b506101bd61074a565b005b3480156101cb57600080fd5b506101d46107e4565b6040516101e19190611288565b60405180910390f35b3480156101f657600080fd5b50610211600480360381019061020c9190611308565b61089d565b005b34801561021f57600080fd5b50610228610961565b6040516102359190611370565b60405180910390f35b34801561024a57600080fd5b50610253610977565b604051610260919061125e565b60405180910390f35b34801561027557600080fd5b50610290600480360381019061028b9190611308565b610a2d565b60405161029e929190611424565b60405180910390f35b3480156102b357600080fd5b506102bc610a98565b6040516102c9919061125e565b60405180910390f35b3480156102de57600080fd5b506102e7610b31565b6040516102f49190611288565b60405180910390f35b34801561030957600080fd5b50610312610b5b565b005b34801561032057600080fd5b50610329610bf5565b6040516103369190611288565b60405180910390f35b34801561034b57600080fd5b5061036660048036038101906103619190611222565b610c1b565b005b610370610d5f565b005b600060019054906101000a900473ffffffffffffffffffffffffffffffffffffffff1673ffffffffffffffffffffffffffffffffffffffff163373ffffffffffffffffffffffffffffffffffffffff1614610402576040517f08c379a00000000000000000000000000000000000000000000000000000000081526004016103f9906114b1565b60405180910390fd5b600073ffffffffffffffffffffffffffffffffffffffff168173ffffffffffffffffffffffffffffffffffffffff161415610472576040517f08c379a00000000000000000000000000000000000000000000000000000000081526004016104699061151d565b60405180910390fd5b60008173ffffffffffffffffffffffffffffffffffffffff16836040516104989061156e565b60006040518083038185875af1925050503d80600081146104d5576040519150601f19603f3d011682016040523d82523d6000602084013e6104da565b606091505b505090508061051e576040517f08c379a0000000000000000000000000000000000000000000000000000000008152600401610515906115cf565b60405180910390fd5b505050565b600060019054906101000a900473ffffffffffffffffffffffffffffffffffffffff1673ffffffffffffffffffffffffffffffffffffffff163373ffffffffffffffffffffffffffffffffffffffff16146105b3576040517f08c379a00000000000000000000000000000000000000000000000000000000081526004016105aa906114b1565b60405180910390fd5b600081116105f6576040517f08c379a00000000000000000000000000000000000000000000000000000000081526004016105ed9061163b565b60405180910390fd5b8060048190555050565b600060019054906101000a900473ffffffffffffffffffffffffffffffffffffffff1673ffffffffffffffffffffffffffffffffffffffff163373ffffffffffffffffffffffffffffffffffffffff1614610690576040517f08c379a0000000000000000000000000000000000000000000000000000000008152600401610687906114b1565b60405180910390fd5b600073ffffffffffffffffffffffffffffffffffffffff168173ffffffffffffffffffffffffffffffffffffffff161415610700576040517f08c379a00000000000000000000000000000000000000000000000000000000081526004016106f79061151d565b60405180910390fd5b80600260006101000a81548173ffffffffffffffffffffffffffffffffffffffff021916908373ffffffffffffffffffffffffffffffffffffffff16021790555050565b60035481565b600060019054906101000a900473ffffffffffffffffffffffffffffffffffffffff1673ffffffffffffffffffffffffffffffffffffffff163373ffffffffffffffffffffffffffffffffffffffff16146107da576040517f08c379a00000000000000000000000000000000000000000000000000000000081526004016107d1906114b1565b60405180910390fd5b6107e2610e34565b565b60008060019054906101000a900473ffffffffffffffffffffffffffffffffffffffff1673ffffffffffffffffffffffffffffffffffffffff163373ffffffffffffffffffffffffffffffffffffffff1614610875576040517f08c379a000000000000000000000000000000000000000000000000000000000815260040161086c906114b1565b60405180910390fd5b600260009054906101000a900473ffffffffffffffffffffffffffffffffffffffff16905090565b600160009054906101000a900473ffffffffffffffffffffffffffffffffffffffff1673ffffffffffffffffffffffffffffffffffffffff163373ffffffffffffffffffffffffffffffffffffffff161461092d576040517f08c379a0000000000000000000000000000000000000000000000000000000008152600401610924906116a7565b60405180910390fd5b610935610e96565b621275006003544261094791906116f6565b111561095d574260038190555061095c610ee0565b5b5050565b60008060009054906101000a900460ff16905090565b600080600560009054906101000a900473ffffffffffffffffffffffffffffffffffffffff1673ffffffffffffffffffffffffffffffffffffffff1663feaf968c6040518163ffffffff1660e01b815260040160a06040518083038186803b1580156109e257600080fd5b505afa1580156109f6573d6000803e3d6000fd5b505050506040513d601f19601f82011682018060405250810190610a1a91906117b7565b5050509150506000819050809250505090565b60006060610a39610e96565b60004711610a7c576040517f08c379a0000000000000000000000000000000000000000000000000000000008152600401610a739061187e565b60405180910390fd5b6212750060035442610a8e91906116f6565b1191509250929050565b60008060019054906101000a900473ffffffffffffffffffffffffffffffffffffffff1673ffffffffffffffffffffffffffffffffffffffff163373ffffffffffffffffffffffffffffffffffffffff1614610b29576040517f08c379a0000000000000000000000000000000000000000000000000000000008152600401610b20906114b1565b60405180910390fd5b600454905090565b6000600160009054906101000a900473ffffffffffffffffffffffffffffffffffffffff16905090565b600060019054906101000a900473ffffffffffffffffffffffffffffffffffffffff1673ffffffffffffffffffffffffffffffffffffffff163373ffffffffffffffffffffffffffffffffffffffff1614610beb576040517f08c379a0000000000000000000000000000000000000000000000000000000008152600401610be2906114b1565b60405180910390fd5b610bf3611026565b565b600060019054906101000a900473ffffffffffffffffffffffffffffffffffffffff1681565b600060019054906101000a900473ffffffffffffffffffffffffffffffffffffffff1673ffffffffffffffffffffffffffffffffffffffff163373ffffffffffffffffffffffffffffffffffffffff1614610cab576040517f08c379a0000000000000000000000000000000000000000000000000000000008152600401610ca2906114b1565b60405180910390fd5b600073ffffffffffffffffffffffffffffffffffffffff168173ffffffffffffffffffffffffffffffffffffffff161415610d1b576040517f08c379a0000000000000000000000000000000000000000000000000000000008152600401610d129061151d565b60405180910390fd5b80600160006101000a81548173ffffffffffffffffffffffffffffffffffffffff021916908373ffffffffffffffffffffffffffffffffffffffff16021790555050565b600060019054906101000a900473ffffffffffffffffffffffffffffffffffffffff1673ffffffffffffffffffffffffffffffffffffffff163373ffffffffffffffffffffffffffffffffffffffff1614610def576040517f08c379a0000000000000000000000000000000000000000000000000000000008152600401610de6906114b1565b60405180910390fd5b60003411610e32576040517f08c379a0000000000000000000000000000000000000000000000000000000008152600401610e29906118ea565b60405180910390fd5b565b610e3c611088565b60008060006101000a81548160ff0219169083151502179055507f5db9ee0a495bf2e6ff9c91a7834c1ba4fdd244a5e8aa4e537bd38aeae4b073aa610e7f6110d1565b604051610e8c9190611288565b60405180910390a1565b610e9e610961565b15610ede576040517f08c379a0000000000000000000000000000000000000000000000000000000008152600401610ed590611956565b60405180910390fd5b565b610ee8610e96565b6000610ef2610977565b90506000816a52b7d2dcc80cd2e4000000600454610f109190611976565b610f1a91906119ff565b90506000600260009054906101000a900473ffffffffffffffffffffffffffffffffffffffff1673ffffffffffffffffffffffffffffffffffffffff1682604051610f649061156e565b60006040518083038185875af1925050503d8060008114610fa1576040519150601f19603f3d011682016040523d82523d6000602084013e610fa6565b606091505b5050905080610fea576040517f08c379a0000000000000000000000000000000000000000000000000000000008152600401610fe190611a7c565b60405180910390fd5b7f7eccf3ddb7453495d6c630623322db31f999dbe9c7906652694d38229c99b93742604051611019919061125e565b60405180910390a1505050565b61102e610e96565b60016000806101000a81548160ff0219169083151502179055507f62e78cea01bee320cd4e420270b5ea74000d11b0c9f74754ebdbfc544b05a2586110716110d1565b60405161107e9190611288565b60405180910390a1565b611090610961565b6110cf576040517f08c379a00000000000000000000000000000000000000000000000000000000081526004016110c690611ae8565b60405180910390fd5b565b600033905090565b600080fd5b600080fd5b6000819050919050565b6110f6816110e3565b811461110157600080fd5b50565b600081359050611113816110ed565b92915050565b600073ffffffffffffffffffffffffffffffffffffffff82169050919050565b600061114482611119565b9050919050565b61115481611139565b811461115f57600080fd5b50565b6000813590506111718161114b565b92915050565b6000806040838503121561118e5761118d6110d9565b5b600061119c85828601611104565b92505060206111ad85828601611162565b9150509250929050565b6000602082840312156111cd576111cc6110d9565b5b60006111db84828501611104565b91505092915050565b60006111ef82611119565b9050919050565b6111ff816111e4565b811461120a57600080fd5b50565b60008135905061121c816111f6565b92915050565b600060208284031215611238576112376110d9565b5b60006112468482850161120d565b91505092915050565b611258816110e3565b82525050565b6000602082019050611273600083018461124f565b92915050565b611282816111e4565b82525050565b600060208201905061129d6000830184611279565b92915050565b600080fd5b600080fd5b600080fd5b60008083601f8401126112c8576112c76112a3565b5b8235905067ffffffffffffffff8111156112e5576112e46112a8565b5b602083019150836001820283011115611301576113006112ad565b5b9250929050565b6000806020838503121561131f5761131e6110d9565b5b600083013567ffffffffffffffff81111561133d5761133c6110de565b5b611349858286016112b2565b92509250509250929050565b60008115159050919050565b61136a81611355565b82525050565b60006020820190506113856000830184611361565b92915050565b600081519050919050565b600082825260208201905092915050565b60005b838110156113c55780820151818401526020810190506113aa565b838111156113d4576000848401525b50505050565b6000601f19601f8301169050919050565b60006113f68261138b565b6114008185611396565b93506114108185602086016113a7565b611419816113da565b840191505092915050565b60006040820190506114396000830185611361565b818103602083015261144b81846113eb565b90509392505050565b600082825260208201905092915050565b7f4e6f74206f776e65720000000000000000000000000000000000000000000000600082015250565b600061149b600983611454565b91506114a682611465565b602082019050919050565b600060208201905081810360008301526114ca8161148e565b9050919050565b7f496e76616c696420616464726573730000000000000000000000000000000000600082015250565b6000611507600f83611454565b9150611512826114d1565b602082019050919050565b60006020820190508181036000830152611536816114fa565b9050919050565b600081905092915050565b50565b600061155860008361153d565b915061156382611548565b600082019050919050565b60006115798261154b565b9150819050919050565b7f4661696c656420746f2077697468647261772045746865720000000000000000600082015250565b60006115b9601883611454565b91506115c482611583565b602082019050919050565b600060208201905081810360008301526115e8816115ac565b9050919050565b7f53616c617279203c3d2030000000000000000000000000000000000000000000600082015250565b6000611625600b83611454565b9150611630826115ef565b602082019050919050565b6000602082019050818103600083015261165481611618565b9050919050565b7f4e6f74204b656570657220526567697374727900000000000000000000000000600082015250565b6000611691601383611454565b915061169c8261165b565b602082019050919050565b600060208201905081810360008301526116c081611684565b9050919050565b7f4e487b7100000000000000000000000000000000000000000000000000000000600052601160045260246000fd5b6000611701826110e3565b915061170c836110e3565b92508282101561171f5761171e6116c7565b5b828203905092915050565b600069ffffffffffffffffffff82169050919050565b6117498161172a565b811461175457600080fd5b50565b60008151905061176681611740565b92915050565b6000819050919050565b61177f8161176c565b811461178a57600080fd5b50565b60008151905061179c81611776565b92915050565b6000815190506117b1816110ed565b92915050565b600080600080600060a086880312156117d3576117d26110d9565b5b60006117e188828901611757565b95505060206117f28882890161178d565b9450506040611803888289016117a2565b9350506060611814888289016117a2565b925050608061182588828901611757565b9150509295509295909350565b7f496e73756666696369656e742066756e64730000000000000000000000000000600082015250565b6000611868601283611454565b915061187382611832565b602082019050919050565b600060208201905081810360008301526118978161185b565b9050919050565b7f4d73672e76616c75652063616e6e6f7420626520300000000000000000000000600082015250565b60006118d4601583611454565b91506118df8261189e565b602082019050919050565b60006020820190508181036000830152611903816118c7565b9050919050565b7f5061757361626c653a2070617573656400000000000000000000000000000000600082015250565b6000611940601083611454565b915061194b8261190a565b602082019050919050565b6000602082019050818103600083015261196f81611933565b9050919050565b6000611981826110e3565b915061198c836110e3565b9250817fffffffffffffffffffffffffffffffffffffffffffffffffffffffffffffffff04831182151516156119c5576119c46116c7565b5b828202905092915050565b7f4e487b7100000000000000000000000000000000000000000000000000000000600052601260045260246000fd5b6000611a0a826110e3565b9150611a15836110e3565b925082611a2557611a246119d0565b5b828204905092915050565b7f4661696c656420746f2073656e64204574686572000000000000000000000000600082015250565b6000611a66601483611454565b9150611a7182611a30565b602082019050919050565b60006020820190508181036000830152611a9581611a59565b9050919050565b7f5061757361626c653a206e6f7420706175736564000000000000000000000000600082015250565b6000611ad2601483611454565b9150611add82611a9c565b602082019050919050565b60006020820190508181036000830152611b0181611ac5565b905091905056fea26469706673582212206bcadbf189ade44ccde8c46eb021a098dbc261450dcdaab616bdb1fc82e17e2264736f6c63430008090033",
  "linkReferences": {},
  "deployedLinkReferences": {}
}